:100000000C9458000C9480000C9480000C94800098
:100010000C9480000C9480000C9480000C94800060
:100020000C9480000C9480000C9480000C94800050
:100030000C9480000C9480000C9480000C94800040
:100040000C945E040C9480000C9480000C9480004E
:100050000C9480000C9480000C9480000C94800020
:100060000C94A8040C9480000000000025002800D7
:100070002B00040404040404040402020202020229
:10008000030303030303010204081020408001025C
:1000900004081020010204081020000000080002DB
:1000A0000100000304070000000000000000C70575
:1000B00011241FBECFEFD8E0DEBFCDBF11E0A0E01E
:1000C000B1E0EAECFCE002C005900D92AC36B1075D
:1000D000D9F722E0ACE6B1E001C01D92A734B20727
:1000E000E1F710E0C8E5D0E004C02197FE010E94CE
:1000F0005D06C735D107C9F70E94E7050C94630672
:100100000C94000008950895AF92BF92CF92DF92B1
:10011000EF92FF920F931F93CF93DF936C017B01BC
:100120008B01040F151FEB015E01AE18BF08C0174D
:10013000D10759F06991D601ED91FC910190F081C0
:10014000E02DC6010995892B79F7C501DF91CF9183
:100150001F910F91FF90EF90DF90CF90BF90AF90E5
:10016000089590E0FC01E656FF4F2491FC01EA5708
:10017000FF4F3491FC01EE58FF4FE491EE23C9F09C
:10018000222339F0233001F1A8F4213019F1223073
:1001900029F1F0E0EE0FFF1FE859FF4FA591B49150
:1001A0008FB7F894EC91611126C030953E233C93B3
:1001B0008FBF08952730A9F02830C9F0243049F7BF
:1001C000809180008F7D03C0809180008F77809325
:1001D0008000DFCF84B58F7784BDDBCF84B58F7D82
:1001E000FBCF8091B0008F778093B000D2CF809109
:1001F000B0008F7DF9CF3E2BDACF3FB7F8948091D6
:10020000230290912402A0912502B091260226B5E6
:10021000A89B05C02F3F19F00196A11DB11D3FBF3E
:10022000BA2FA92F982F8827BC01CD01620F711D0D
:10023000811D911D42E0660F771F881F991F4A9507
:10024000D1F708958F929F92AF92BF92CF92DF9293
:10025000EF92FF924B015C010E94FD006B017C015B
:100260000E94FD006C197D098E099F09683E73404C
:1002700081059105A8F321E0821A9108A108B1082F
:1002800088EEC80E83E0D81EE11CF11C8114910495
:10029000A104B10429F7FF90EF90DF90CF90BF90B9
:1002A000AF909F908F90089508952091AD01260FF3
:1002B0003327331F21323105ECF42091F601FC0184
:1002C00090E080E0243069F082E00895A091AD01D3
:1002D0002191AC0143575E4FA40FB52FB11D2C9354
:1002E0000196861798F38091AD01680F6093AD0178
:1002F00080E0089581E008951092F60181E08093F6
:10030000F5011092D00161E082E10E94B10061E04C
:1003100083E10E94B100E9EBF0E080818E7F808371
:1003200080818D7F808388E48093B80085E480930A
:10033000BC000895CF93DF9391E090938C018823C4
:10034000B9F0C091B800D091BA008091BC008A7B0E
:100350008093BC0060E082E10E94B10060E083E134
:100360000E94B1000E947C01D093BA00C093B800F3
:10037000DF91CF9108950895E0912E0280912D0292
:10038000E81730F4F0E0E459FE4F808190E00895E2
:100390008FEF9FEF089590912E0280912D022FEF05
:1003A0003FEF981748F4E92FF0E0E459FE4F208121
:1003B00030E09F5F90932E02C901089580912D0235
:1003C00090912E02891B990B0895CF92DF92EF92A4
:1003D000FF920F931F93CF93DF937C01CB018A0190
:1003E0002091FC01222389F0EB016B01C40ED51E84
:1003F000CC15DD0569F06991D701ED91FC91019073
:10040000F081E02DC7010995F3CF642F0E945501BB
:10041000C801DF91CF911F910F91FF90EF90DF9076
:10042000CF900895CF93DF931F92CDB7DEB7698346
:100430002091FC012223F9F020912B02203258F068
:1004400021E030E0FC013383228390E080E00F90D4
:10045000DF91CF91089580912C02E82FF0E0E350D6
:10046000FE4F998190838F5F80932C0280932B02A3
:1004700081E090E0ECCF61E0CE0101960E94550151
:10048000F7CFCF92DF92EF92FF920F931F93CF930C
:10049000DF93FC01C48121E02093FC01C0931D0285
:1004A00010922C0210922B028385682B8FE292E02F
:1004B0000E941202D0912B02D13208F092C00E9409
:1004C000FD006B017C018091F601811165C082E025
:1004D0008093F60181E08093F5018FEF8093F40122
:1004E0001092F301D093F201ADEFB1E0E2EDF1E053
:1004F00080E0D81385C01092D1018091D101CC0F3A
:10050000C82BC093D1018091D001813009F07CC00B
:100510001092D0010E94FD006B017C018091D101FD
:100520008093BB008091F8019091F901A091FA01AC
:10053000B091FB01892B8A2B8B2B99F00E94FD0037
:100540000091F8011091F9012091FA013091FB011D
:100550006C197D098E099F090617170728073907A7
:10056000E0F18091BC0083FDD9CF85EC8093BC0085
:100570000E94FD006B017C018091F601823009F43C
:1005800045C08091F4018F3F61F18091F401803288
:1005900041F18091F40125C08091F8019091F90119
:1005A000A091FA01B091FB01892B8A2B8B2B09F4C6
:1005B0008ACF0E94FD000091F8011091F90120916D
:1005C000FA013091FB016C197D098E099F0906170C
:1005D00017072807390708F076CF8091F7010E94A6
:1005E0009A0110922C0210922B021092FC01DF91C2
:1005F000CF911F910F91FF90EF90DF90CF900895D2
:100600009D9191938F5F75CF85EEB0CF8091F8016A
:100610009091F901A091FA01B091FB01892B8A2BED
:100620008B2B09F4A9CF0E94FD000091F8011091D5
:10063000F9012091FA013091FB016C197D098E09B5
:100640009F09061717072807390708F095CFC5CF68
:1006500090E080E00895FC0101900020E9F73197D7
:10066000AF01481B590BBC018BE392E00C94840052
:100670000F931F93CF938C01C62F0E9441026C2FC2
:100680006460C8010E9441026C2F6B7FC8010E9408
:10069000410283EC90E00197F1F7CF911F910F9108
:1006A00008950F931F93CF93DF938C01D62FC42F00
:1006B000607F642B0E94380380E1D89FB001112431
:1006C0006C2BC801DF91CF911F910F910C943803CF
:1006D000CF93DF93CDB7DEB728970FB6F894DEBF80
:1006E0000FBECDBF98E0E0E0F1E0DE011196019091
:1006F0000D929A95E1F790914302961710F46FEFDF
:10070000690F262F30E0220F331F41E050E04C0FDD
:100710005D1F240F351FF9016081680F606840E09C
:100720008BE392E028960FB6F894DEBF0FBECDBFE4
:10073000DF91CF910C945103CF93DF9310922E024F
:1007400010922D0210922C0210922B020E947C011A
:1007500082E890E090932A028093290283E890E057
:1007600090932802809327021092400280914502C4
:10077000823018F098E0909340028093430262E345
:1007800070E080E090E00E942201609146028BE3DD
:1007900092E00E94410268EE73E080E090E00E94E7
:1007A000220160E38BE392E00E943803CBE4D6E4BD
:1007B000CE010197F1F760E38BE392E00E943803EA
:1007C0002197F1F760E38BE392E00E94380383E521
:1007D00092E00197F1F760E28BE392E00E94380328
:1007E00060914002606240E08BE392E00E9451031E
:1007F00084E08093410240E06CE08BE392E00E9451
:10080000510340E061E08BE392E00E945103CBE3AF
:10081000DFE1CE010197F1F782E08093420240E0F0
:1008200066E08BE392E00E94510340E062E08BE3DC
:1008300092E00E9451032197F1F7DF91CF91089543
:1008400041E00E94510381E090E0089585ED80939E
:10085000BC008091F8019091F901A091FA01B0914A
:10086000FB010796A11DB11D23E0B695A7959795AD
:1008700087952A95D1F72091BC0024FD03C01092E2
:10088000F60108954091F8015091F9016091FA0143
:100890007091FB01452B462B472B69F30097A1056F
:1008A000B10541F025E32A95F1F700000197A10970
:1008B000B109E1CF8091F7010C949A011F920F9238
:1008C0000FB60F9211242F933F938F939F93AF9363
:1008D000BF9380911F0290912002A0912102B091BC
:1008E000220230911E0223E0230F2D3758F5019686
:1008F000A11DB11D20931E0280931F029093200220
:10090000A0932102B09322028091230290912402AD
:10091000A0912502B09126020196A11DB11D8093E0
:10092000230290932402A0932502B0932602BF9144
:10093000AF919F918F913F912F910F900FBE0F908C
:100940001F90189526E8230F0296A11DB11DD2CF46
:100950001F920F920FB60F9211242F933F934F9334
:100960005F936F937F938F939F93AF93BF93EF9317
:10097000FF938091B900887F803609F44AC0F0F572
:10098000883209F4A7C018F5803109F49BC0B8F487
:10099000882309F4F9C0883009F494C0FF91EF91DD
:1009A000BF91AF919F918F917F916F915F914F9187
:1009B0003F912F910F900FBE0F901F901895883187
:1009C00009F488C0803251F78093F40114C0803458
:1009D00009F49DC040F48033B9F38833F9F680936D
:1009E000F40185ECB0C0803509F485C0883509F480
:1009F00096C0883499F60E942604D0CF883909F42D
:100A00008CC038F5883729F050F4883611F08037DB
:100A100029F683E08093F6011092CF0157C0883801
:100A200009F47BC0803919F0803809F0B7CF809184
:100A3000CF01803208F071C0E091CF0181E08E0FCC
:100A40008093CF018091BB00F0E0E155FE4F8083A1
:100A50003DC0803B39F0E0F4803A09F479C0883A2F
:100A600009F09CCF84E08093F6011092AE011092C1
:100A7000AD01E0912902F0912A0209958091AD0122
:100A800081110FC081E08093AD0110928D0109C0EA
:100A9000803C09F4A6CF883C09F4A3CF883B09F039
:100AA0007DCFE091AE0181E08E0F8093AE01F0E04A
:100AB000E357FE4F80818093BB009091AE018091FF
:100AC000AD0129C08091D1018093BB0085EC80935A
:100AD000BC0064CF9091F3018091F201981758F512
:100AE000E091F30181E08E0F8093F301F0E0EE528C
:100AF000FE4F8081E9CFE091F30181E08E0F80937A
:100B0000F3018091BB00F0E0EE52FE4F80839091A4
:100B1000F3018091F2019817C8F285E8D8CFE091EF
:100B2000F30181E08E0F8093F3018091BB00F0E030
:100B3000EE52FE4F80838091F50181115CCF81E000
:100B40008093D00184EA8093BC001092F60126CFF6
:100B500085EC8093BC001092F6018091CF01803229
:100B600030F4E091CF01F0E0E155FE4F108260914A
:100B7000CF0170E0E0912702F09128028FEA91E026
:100B800009951092CF010ACF1092F40134CFEFE211
:100B9000F2E01382128288EE93E0A0E0B0E084835A
:100BA0009583A683B7838CE091E091838083EBE308
:100BB000F2E0138212828EE191E09183808387E2DA
:100BC000848384E1818784E0828713860895789402
:100BD00084B5826084BD84B5816084BD85B5826042
:100BE00085BD85B5816085BD80916E0081608093F3
:100BF0006E0010928100809181008260809381005C
:100C0000809181008160809381008091800081606B
:100C1000809380008091B10084608093B1008091C6
:100C2000B00081608093B00080917A0084608093EE
:100C30007A0080917A00826080937A0080917A00B5
:100C4000816080937A0080917A00806880937A0036
:100C50001092C1000E949C030E949C0388E0809334
:100C6000460260E08BE392E00E94410260E083E094
:100C70000E94680386E291E00E942B0361E082E01B
:100C80000E94680384E391E00E942B0362E080E00D
:100C90000E94680385E491E00E942B0363E082E0F8
:100CA0000E9468038AE591E00E942B03C0E0D0E037
:100CB0002097F1F30E940000FBCFEE0FFF1F05907D
:0A0CC000F491E02D0994F894FFCFA1
:100CCA000000400014005400000000001202E50178
:100CDA002803BB01DE01CB01BC0100000000200497
:100CEA0084002803540148656C6C6F2C20776F725E
:100CFA006C6421005977726F626F74204172647557
:100D0A00696E6F210041726475696E6F204C434DA4
:100D1A0020494943203230303400506F77657220C1
:0C0D2A0042792045632D7975616E21002F
:00000001FF
